:020000040C00EE
:100000000008001001020008B1020008B102000857
:10001000B1020008B1020008B102000800000000AF
:10002000000000000000000000000000B102000815
:10003000B102000800000000B1020008B10200088F
:10004000B1020008B1020008B1020008B1020008C4
:1000500011100008B1020008B1020008B102000846
:10006000B1020008000000000000000000000000D5
:10007000B102000800000000B1020008B10200084F
:10008000B1020008B1020008B1020008B102000884
:10009000B1020008B1020008B1020008B102000874
:1000A000B1020008B1020008B1020008B102000864
:1000B000B1020008B1020008B1020008B102000854
:1000C000B1020008B1020008B1020008B102000844
:1000D000B1020008B1020008B1020008B102000834
:1000E000B1020008B1020008B1020008B102000824
:1000F000B1020008B1020008B1020008B102000814
:10010000B1020008B1020008B1020008B102000803
:10011000B1020008B1020008B1020008B1020008F3
:10012000B1020008B1020008B1020008B1020008E3
:10013000B1020008B1020008B1020008B1020008D3
:10014000B1020008B1020008B1020008B1020008C3
:10015000B1020008B1020008B1020008B1020008B3
:10016000000000000000000000000000000000008F
:10017000B1020008B1020008B1020008B102000893
:10018000B1020008B1020008B1020008B102000883
:10019000B1020008B1020008B1020008B102000873
:1001A000B1020008B1020008B1020008B102000863
:1001B000B1020008B1020008B1020008B102000853
:1001C000B1020008B1020008B1020008B102000843
:1001D000B1020008B1020008B102000800000000EE
:1001E000B1020008B1020008B1020008B102000823
:1001F000B102000800000000B10200080000000089
:10020000DFF88CD023488047234C244DAC4209DAD8
:1002100021686268A368043BA2BFC858D050FAE7BF
:100220000C34F3E71E4B1F4CA34208DA19685A68D6
:100230000020043AA4BF8850FBE70833F4E71A48CB
:1002400080471A48804700002C19000C000000204D
:10025000000000002C19000C00000030000000001D
:100260002C19000C00080010000000002C19000CD4
:100270000008001000000000000000200C0000003A
:100280000000003000000000000800100000000026
:1002900000080010DD02000848020008780200088B
:1002A0007802000890020008BD180008010F00083D
:1002B000FEE7000080B485B000AF78600023FB60EB
:1002C00003E000BFFB680133FB60FA687B689A4279
:1002D000F7D31437BD465DF8047B704798B500AF7F
:1002E000054A4FF0005314460FCB84E80F0000F08E
:1002F0007BFD00F003F898BDC4FF002080B500AF7F
:10030000774B1B6803F00103002B0CD1744A744B2C
:100310005B6843F00103536000BF714B1B6803F03F
:100320000103002BF9D06F4B1B6803F40073002B03
:1003300009D06C4A6B4B9B6843F40073936041F6A1
:100340004C50FFF7B7FF684A674B5B6843F40023E4
:10035000536040F6C410FFF7ADFF634A624B5B6821
:1003600023F4803323F002035360604B5B6803F097
:100370003003002B26D05D4A5C4B5B6823F470236E
:1003800023F03003536000F02BF90246584BA3FBD7
:1003900002231B0D013B1B045449544A526813436A
:1003A0004B60514B0022DA604F4A4F4B5B6823F49D
:1003B0000033536000BF4C4B1B6803F46073B3F50C
:1003C000607FF8D1484A484B5B6843F001035360B3
:1003D00000BF454B1B6803F00103002BF9D0424AD4
:1003E000414B5B6843F0100353603F4B414A9A60B6
:1003F0003D4A3D4B5B6843F0400353603A4A3A4BF9
:100400005B6823F010035360374A374B5B6843F453
:100410008023536000BF344B1B6803F00403002BA0
:10042000F9D0314A304B5B6823F00103536000BFC1
:100430002D4B1B6803F00103002BF9D12E4A2E4BE4
:10044000DB6843F48033D3602B4B00225A612A4B84
:1004500000221A61284B00221A62274B00225A629E
:10046000254B0022DA61244B03229A611E4A1E4B5F
:100470005B6823F0400353601B4B204A9A6000BF27
:10048000194B1B6803F02003002BF9D040F6B8305D
:10049000FFF710FF144B1A4A9A6000BF124B1B68FB
:1004A00003F02003002BF9D041F29410FFF702FF74
:1004B0000D4B144A9A6000BF0B4B1B6803F02003DE
:1004C000002BF9D041F27070FFF7F4FE0E4B0522BD
:1004D000DA60094B00225A6000F018F880BD00BFB6
:1004E00000420050004400501047005000470050A8
:1004F0006BCA5F6B004F130100460050004F0701AD
:10050000004F0401004F03016041005080B584B0EA
:1005100000AF2F4BDB6803F48033002B3ED02D4B14
:10052000DB6803F00103002B02D02B4BFB6002E0E1
:1005300000F056F8F860274B1B6803F00403002B0B
:1005400020D0244B9B6803F070631B0E0133BB600B
:10055000204B9B6803F4FE431B0A01337B601D4B59
:100560009B6803F4FE031B0C01333B60BB683A68D5
:1005700002FB03F3FA68B2FBF3F37A6802FB03F3BE
:10058000FB600DE0134B9B6803F07F0301333B607E
:10059000FA683B68B2FBF3F3FB6001E00E4BFB60D3
:1005A0000B4BDB68DBB20133FA68B2FBF3F3FB60A1
:1005B000074B1B6903F001030133FA68B2FBF3F345
:1005C000FB60064AFB6813601037BD4680BD00BF64
:1005D000004600501047005000366E01C0FF00205A
:1005E00080B400AF024B1846BD465DF8047B7047EF
:1005F000001BB70080B582B000AF78607B68054A09
:10060000934203D14FF4803000F0ACF80837BD4678
:1006100080BD00BF0040044080B485B000AFF860EA
:100620000B467A60FB72FB7A9B08DBB21846FB7ABA
:100630009B08DBB21A46FB68043253F82220FB7A8F
:1006400003F00303DB001946F8238B40DB4302EA87
:100650000301FB68021D43F82210FB685A6FFB7A06
:100660005B00194603238B40DB431A40FB685A6743
:10067000FB683A4A934203D0FB68394A93420AD155
:10068000FB681A6EFB7A012101FA03F3DB431A407F
:10069000FB681A6642E07B681B78DBB25BB2002B1A
:1006A0003CDA7B685A68FB7A9A40FB685A60FB7AAE
:1006B000DB08DBB21846FB7ADB08DBB21A46FB68C4
:1006C000103253F82220FB7A03F007039B001946EF
:1006D00007238B40DB4302EA0301FB6800F11002B1
:1006E00043F82210FB7ADB08DBB21846FB7ADB0802
:1006F000DBB21A46FB68103253F822207B681B7A63
:100700001946FB7A03F007039B0001FA03F342EA60
:100710000301FB6800F1100243F82210FB7A9B08EA
:10072000DBB21846FB7A9B08DBB21A46FB68043240
:1007300053F822207B681B781946FB7A03F00303E9
:10074000DB0001FA03F342EA0301FB68021D43F8F0
:1007500022101437BD465DF8047B7047008E0248B6
:10076000008F024880B485B000AF78607B681B0FB3
:10077000FB607B6823F07043BB60FA6813465B0044
:1007800013449B001A46044B1344BA681A6014378A
:10079000BD465DF8047B70471444005080B584B0BA
:1007A00000AFF8600B467A60FB72F868FFF722FF33
:1007B000FB681A68FB7A9B0019460F238B40DB43CA
:1007C0001A407B681B68F97A89008B401A43FB68E2
:1007D0001A60FA7A7B685968FB68043243F8221081
:1007E0001037BD4680BD00BF80B483B000AF7860D5
:1007F0000B46FB701346BB70FA78BB7803F003031B
:10080000D9B27B68083201F00301090153F82200D4
:1008100020F03000014343F822100C37BD465DF84C
:10082000047B704780B400AFBD465DF8047B704721
:1008300080B586B000AF03460A46FB711346BB7114
:10084000FB79FB60FB6803F0F0031A03FB6803F01D
:100850000F031B0213441F333B61BB79012B02D1F1
:100860003B6940333B610023FB7527E0164A164B7A
:100870001B6823F0040313603B6903F00103002BA2
:1008800006D1114A104B1B6823F00103136005E0E9
:100890000D4A0D4B1B6843F00103136000F016F87E
:1008A000094A094B1B6843F00403136000F00EF87B
:1008B0003B695B083B61FB7D0133FB75FB7D172BBF
:1008C000D4D91837BD4680BD0085024880B483B0B6
:1008D00000AF0023FB8002E0FB880133FB80FB8834
:1008E0000E2BF9D90C37BD465DF8047B704700BF6D
:1008F00080B483B000AF0023FB8002E0FB880133AB
:10090000FB80FB8840F2FE729342F7D90C37BD465C
:100910005DF8047B704700BF80B483B000AF002354
:10092000FB8002E0FB880133FB80FB8847F6FE7208
:100930009342F7D90C37BD465DF8047B704700BF82
:1009400080B500AF1A4A1A4B1B6903F07F4313614D
:10095000174A174B1B6943F080131361FFF7DCFF45
:10096000FFF7DAFF34200021FFF762FFFFF7D4FF23
:1009700009200021FFF75CFFFFF7CEFF30200021A8
:10098000FFF756FFFFF7C8FF0F200021FFF750FFCA
:10099000FFF7C2FF01200021FFF74AFFFFF7BCFF6E
:1009A00007200021FFF744FFFFF7B6FF80BD00BF1F
:1009B0000085024880B500AF01200021FFF738FF15
:1009C000FFF7AAFF0E200021FFF732FFFFF790FF8D
:1009D00080BD00BF80B582B000AF0346FB71FB79DC
:1009E00018460121FFF724FFFFF782FFFFF780FF82
:1009F0000837BD4680BD00BF80B584B000AF034658
:100A0000FB80FB88384AA2FB03235B0B9BB2FB7382
:100A1000FB88354AA2FB0312520B42F2107101FB14
:100A200002F29B1AFB80FB7B3033DBB2DBB25BB2A2
:100A30001846FFF7CFFFFB882C4AA2FB03239B0934
:100A40009BB2FB73FB88294AA2FB031292094FF465
:100A50007A7101FB02F29B1AFB80FB7B3033DBB225
:100A6000DBB25BB21846FFF7B5FFFB88204AA2FB5A
:100A700003235B099BB2FB73FB881D4AA2FB031295
:100A80005209642101FB02F29B1AFB80FB7B30338D
:100A9000DBB2DBB25BB21846FFF79CFFFB88154A5E
:100AA000A2FB0323DB089BB2FB73FA88114BA3FB69
:100AB0000213D9080B469B000B445B00D31AFB8042
:100AC000FB7B3033DBB2DBB25BB21846FFF782FF51
:100AD000FB883033FB80FB88DBB25BB21846FFF744
:100AE00079FF1037BD4680BD5917B7D1D34D62107D
:100AF0001F85EB51CDCCCCCC80B584B000AF034684
:100B00000A46FB711346BB71FB79013B032B17D8D7
:100B100001A252F823F000BF290B00082F0B000898
:100B2000350B00083B0B00080023FB730BE0202370
:100B3000FB7308E04023FB7305E06023FB7302E0D6
:100B40000023FB7300BFBA79FB7B1344DBB2013B8C
:100B5000FB73FB7B63F07F03DBB218460021FFF7DA
:100B600067FEFFF7C5FEFFF7C3FE1037BD4680BD29
:100B700080B400AF0D4A0D4B1B6943F01C03136199
:100B80000A4A0A4B5B6943F01C035361084A084B4D
:100B90005B6843F010035360064A064BDB6C43F07E
:100BA0000F03D364BD465DF8047B704700440050DA
:100BB000004600500040005080B400AF044BDB689A
:100BC00003F4E0631B0A1846BD465DF8047B7047DA
:100BD00000ED00E080B483B000AF0346FB7197F9ED
:100BE0000730002B0BDB084997F907305B09FA79CE
:100BF00002F01F02012000FA02F241F823200C3714
:100C0000BD465DF8047B704700E100E080B483B02E
:100C100000AF0346FB7197F90730002B0CDB094945
:100C200097F907305B09FA7902F01F02012000FAF8
:100C300002F2603341F823200C37BD465DF8047B97
:100C4000704700BF00E100E080B483B000AF03460E
:100C50003960FB7197F90730002B0ADB0D4997F9D2
:100C600007303A68D2B29200D2B20B4483F8002324
:100C70000AE00949FB7903F00F03043B3A68D2B25A
:100C80009200D2B20B441A760C37BD465DF8047B55
:100C9000704700BF00E100E000ED00E080B489B0E3
:100CA00000AFF860B9607A60FB6803F00703FB618E
:100CB000FB69C3F10703062B28BF0623BB61FB6951
:100CC0000633062B02D9FB69013B00E000237B6160
:100CD000BB69012202FA03F35A1EBB681A407B6902
:100CE0009A407B69012101FA03F3591E7B680B408E
:100CF000134318462437BD465DF8047B704700BF98
:100D000090B583B000AF78607B6859687B6893F8D2
:100D100021207B680833084611461A46FFF77CFC01
:100D20007B6819687B68DA7F7B6814330846114654
:100D30001A46FFF733FD7B681A687B6893F820300A
:100D4000104619460122FFF74FFD7B681C7FFFF715
:100D500033FF01467B685B7F1A467B689B7F0846B2
:100D600011461A46FFF79AFF024663B2184611462B
:100D7000FFF76AFF7B6893F82230002B0BD07B686B
:100D80001B7F5BB21846FFF741FF7B681B7F5BB29E
:100D90001846FFF71FFF002318460C37BD4690BDCD
:100DA00080B485B000AF78607B6803F00703FB6018
:100DB0000C4BDB68BB60BA684FF6FF031340BB60A7
:100DC000FB681A02BB68134343F0BF6343F400336C
:100DD000BB60044ABB68D3601437BD465DF8047B32
:100DE000704700BF00ED00E080B582B000AF012089
:100DF000FFF7D6FF72B6214B214A9A60BFF34F8F9F
:100E000062B61E4A1D4BD3F8883043F47003C2F813
:100E100088301C4B03F5805314331B687B607B6860
:100E200023F00F037B607B6843F003037B60154B6B
:100E300003F5805314337A681A60104A0F4B5B69CC
:100E400023F0100353610D4A0C4B5B6923F0080338
:100E500053610A4A094B5B6A23F480335362074AA1
:100E6000064B5B6A23F400335362044A034B5B6A0C
:100E700023F4802353620837BD4680BD00ED00E0B7
:100E8000000000080010005880B582B000AF0023B9
:100E9000FB71FB79002B04D10448FFF731FF0346B7
:100EA000FB71FB7918460837BD4680BD081900085C
:100EB00080B483B000AF78600B46FB707B685A6AE1
:100EC000FB7822FA03F303F0010318460C37BD4602
:100ED0005DF8047B704700BF80B582B000AF7860DA
:100EE0007B685A687B6893F8213010461946FFF7F3
:100EF000DFFF034618460837BD4680BD00000000EE
:100F000080B500AFFFF7C0FF0A204EF2E4414EF279
:100F1000D84200F0A3F800F0CBF8FFF711FDFFF77F
:100F200049FD354B1B78012B5BD101200121FFF7D7
:100F3000E3FD324B1B68184600F018FA02460B46D8
:100F40001046194628A3D3E9002300F085FA02468B
:100F50000B46104619464FF00002294B00F0A6FB45
:100F600002460B461046194600F088FC0246234B09
:100F70001A60224B1B68184600F0F8F902460B462F
:100F8000104619464FF000021E4B00F065FA02466B
:100F90000B461046194616A3D3E9002300F05CFA6D
:100FA00002460B46104619464FF00002164B00F061
:100FB00053FA02460B461046194600F05FFC034602
:100FC0009AB2124B1A80114B1B881846FFF714FD7A
:100FD0006320FFF7FFFC6D20FFF7FCFC064B0022AF
:100FE0001A709EE7AFF30080713D0AD7A3AA804034
:100FF0008DEDB5A0F7C6B03E00000020080000202F
:1010000000408F40008065400000594004000020EF
:1010100080B500AF0D48FFF75FFF0346002B06D0F9
:101020000B4B0122DA600B4B02221A700CE0084BCA
:1010300001221A61064B1B6F074A1360044B022200
:101040001A61044B01221A7080BD00BF0819000804
:1010500000C10040000000200800002080B584B0DE
:1010600000AFF860B9607A60FFF782FD0D4B40F287
:101070000F12DA600C4B04225A610B4AFB68536270
:10108000094ABB685363084A7B68D363054B012256
:101090001A61064B98221A61034B0122DA6010375D
:1010A000BD4680BD00400140004101400083024830
:1010B00080B400AF0A4B40F20F12DA60094B0422F1
:1010C0005A61084B06225A62064B48F2D8325A63DC
:1010D000034B01221A61BD465DF8047B704700BFD7
:1010E00000C0004000C1004081F0004102E000BFAC
:1010F00083F0004330B54FEA41044FEA430594EAD8
:10110000050F08BF90EA020F1FBF54EA000C55EA12
:10111000020C7FEA645C7FEA655C00F0E2804FEAE3
:101120005454D4EB5555B8BF6D420CDD2C4480EAC5
:10113000020281EA030382EA000083EA010180EAF5
:10114000020281EA0303362D88BF30BD11F0004F43
:101150004FEA01314FF4801C4CEA113102D0404279
:1011600061EB410113F0004F4FEA03334CEA1333B4
:1011700002D0524263EB430394EA050F00F0A780CC
:10118000A4F10104D5F1200E0DDB02FA0EFC22FAC7
:1011900005F2801841F1000103FA0EF2801843FABB
:1011A00005F359410EE0A5F120050EF1200E012AAC
:1011B00003FA0EFC28BF4CF0020C43FA05F3C018EA
:1011C00051EBE37101F0004507D54FF0000EDCF163
:1011D000000C7EEB00006EEB0101B1F5801F1BD30C
:1011E000B1F5001F0CD349085FEA30004FEA3C0C10
:1011F00004F101044FEA445212F5800F80F09A8006
:10120000BCF1004F08BF5FEA500C50F1000041EB09
:10121000045141EA050130BD5FEA4C0C404141EB0D
:10122000010111F4801FA4F10104E9D191F0000F34
:1012300004BF01460020B1FA81F308BF2033A3F1B7
:101240000B03B3F120020CDA0C3208DD02F1140CAE
:10125000C2F10C0201FA0CF021FA02F10CE002F1E9
:101260001402D8BFC2F1200C01FA02F120FA0CFCE2
:10127000DCBF41EA0C019040E41AA2BF01EB04512B
:10128000294330BD6FEA04041F3C1CDA0C340EDC29
:1012900004F11404C4F1200220FA04F001FA02F36C
:1012A00040EA030021FA04F345EA030130BDC4F12A
:1012B0000C04C4F1200220FA02F001FA04F340EA1F
:1012C0000300294630BD21FA04F0294630BD94F0D0
:1012D000000F83F4801306BF81F480110134013DB7
:1012E0004EE77FEA645C18BF7FEA655C29D094EA28
:1012F000050F08BF90EA020F05D054EA000C04BFA6
:101300001946104630BD91EA030F1EBF0021002090
:1013100030BD5FEA545C05D14000494128BF41F02F
:10132000004130BD14F580043CBF01F5801130BD93
:1013300001F0004545F0FE4141F470014FF000001E
:1013400030BD7FEA645C1ABF194610467FEA655CCF
:101350001CBF0B46024650EA013406BF52EA033571
:1013600091EA030F41F4002130BD00BF90F0000F5F
:1013700004BF0021704730B54FF4806404F132049B
:101380004FF000054FF0000150E700BF90F0000F54
:1013900004BF0021704730B54FF4806404F132047B
:1013A00010F0004548BF40424FF000013EE700BF4B
:1013B00042004FEAE2014FEA31014FEA02701FBFDB
:1013C00012F07F4393F07F4F81F06051704792F0AD
:1013D000000F14BF93F07F4F704730B54FF4607427
:1013E00001F0004521F0004120E700BF50EA010272
:1013F00008BF704730B54FF000050AE050EA01021F
:1014000008BF704730B511F0004502D5404261EB8E
:1014100041014FF4806404F132045FEA915C3FF4CF
:10142000DCAE4FF003025FEADC0C18BF03325FEA68
:10143000DC0C18BF033202EBDC02C2F1200300FA1D
:1014400003FC20FA02F001FA03FE40EA0E0021FA42
:1014500002F11444C1E600BF70B54FF0FF0C4CF42C
:10146000E06C1CEA11541DBF1CEA135594EA0C0FE2
:1014700095EA0C0F00F0DEF82C4481EA030621EA1D
:101480004C5123EA4C5350EA013518BF52EA033558
:1014900041F4801143F4801338D0A0FB02CE4FF00A
:1014A0000005E1FB02E506F00042E0FB03E54FF03A
:1014B0000006E1FB03569CF0000F18BF4EF0010E32
:1014C000A4F1FF04B6F5007F64F5407404D25FEA2E
:1014D0004E0E6D4146EB060642EAC62141EA5551E1
:1014E0004FEAC52040EA5E504FEACE2EB4F1FD0C23
:1014F00088BFBCF5E06F1ED8BEF1004F08BF5FEAA1
:10150000500E50F1000041EB045170BD06F0004652
:1015100046EA010140EA020081EA0301B4EB5C04FF
:10152000C2BFD4EB0C0541EA045170BD41F48011F7
:101530004FF0000E013C00F3AB8014F1360FDEBF1C
:10154000002001F0004170BDC4F10004203C35DAF8
:101550000C341BDC04F11404C4F1200500FA05F37B
:1015600020FA04F001FA05F240EA020001F000421C
:1015700021F0004110EBD37021FA04F642EB060192
:101580005EEA430E08BF20EAD37070BDC4F10C04BC
:10159000C4F1200500FA04F320FA05F001FA04F280
:1015A00040EA020001F0004110EBD37041F100016C
:1015B0005EEA430E08BF20EAD37070BDC4F1200577
:1015C00000FA05F24EEA020E20FA04F301FA05F2DF
:1015D00043EA020321FA04F001F0004121FA04F287
:1015E00020EA020000EBD3705EEA430E08BF20EA57
:1015F000D37070BD94F0000F0FD101F00046400091
:1016000041EB010111F4801F08BF013CF7D041EA12
:10161000060195F0000F18BF704703F00046520016
:1016200043EB030313F4801F08BF013DF7D043EAE7
:101630000603704794EA0C0F0CEA135518BF95EA9D
:101640000C0F0CD050EA410618BF52EA4306D1D124
:1016500081EA030101F000414FF0000070BD50EA43
:10166000410606BF1046194652EA430619D094EACD
:101670000C0F02D150EA013613D195EA0C0F05D1B7
:1016800052EA03361CBF104619460AD181EA03010B
:1016900001F0004141F0FE4141F470014FF00000C3
:1016A00070BD41F0FE4141F4780170BD70B54FF05E
:1016B000FF0C4CF4E06C1CEA11541DBF1CEA1355DE
:1016C00094EA0C0F95EA0C0F00F0A7F8A4EB0504C0
:1016D00081EA030E52EA03354FEA013100F08880B7
:1016E0004FEA03334FF0805545EA131343EA126380
:1016F0004FEA022245EA111545EA10654FEA002635
:101700000EF000419D4208BF964244F1FD0404F5ED
:10171000407402D25B084FEA3202B61A65EB030549
:101720005B084FEA32024FF480104FF4002CB6EB06
:10173000020E75EB030E22BFB61A754640EA0C0086
:101740005B084FEA3202B6EB020E75EB030E22BFC6
:10175000B61A754640EA5C005B084FEA3202B6EB07
:10176000020E75EB030E22BFB61A754640EA9C00C6
:101770005B084FEA3202B6EB020E75EB030E22BF96
:10178000B61A754640EADC0055EA060E18D04FEA54
:10179000051545EA16754FEA06164FEAC30343EAF4
:1017A00052734FEAC2025FEA1C1CC0D111F4801FC1
:1017B0000BD141EA00014FF000004FF0004CB6E7BA
:1017C00011F4801F04BF01430020B4F1FD0C88BF59
:1017D000BCF5E06F3FF6AFAEB5EB030C04BFB6EB64
:1017E000020C5FEA500C50F1000041EB045170BD57
:1017F0000EF0004E4EEA113114EB5C04C2BFD4EB84
:101800000C0541EA045170BD41F480114FF0000E07
:10181000013C90E645EA060E8DE60CEA135594EA83
:101820000C0F08BF95EA0C0F3FF43BAF94EA0C0F86
:101830000AD150EA01347FF434AF95EA0C0F7FF4FB
:1018400025AF104619462CE795EA0C0F06D152EA4F
:1018500003353FF4FDAE1046194622E750EA410633
:1018600018BF52EA43067FF4C5AE50EA41047FF444
:101870000DAF52EA43057FF4EBAE12E74A0011D2F6
:1018800012F5001211D20DD56FF47873B3EB6252DA
:101890000ED44FEAC12343F0004343EA505323FAE6
:1018A00002F070474FF00000704750EA013002D15B
:1018B0004FF0FF3070474FF00000704770B50E4B8F
:1018C0000E4CE41AA41000251E46A54204D056F87A
:1018D000253098470135F8E7FEF7A4FF084C094B7F
:1018E000E41AA41000251E46A54204D056F825305F
:1018F00098470135F8E770BD000000200000002087
:101900000000002000000020004800500080024835
:1019100000000000000000000000000000000000C7
:0C1920003D010000043F00000300010036
:0400000508000201EC
:00000001FF
